S00C00004C6162312E73726563D8
S11300000C9444000C9456000C9456000C94060175
S11300100C9454010C9456000C9456000C94560005
S11300200C9456000C9456000C9456000C945600F4
S11300300C9456000C9456000C9456000C945600E4
S11300400C9456000C9456000C9456000C945600D4
S11300500C9456000C9456000C9456000C945600C4
S11300600C9456000C94560068006B006E007100EE
S1130070740077007A007D00800083008600890088
S11300808C008F009200950011241FBECFEFD8E0A2
S1130090DEBFCDBF21E0A0E0B1E001C01D92A630DB
S11300A0B207E1F70E94AE000C94B2010C94000078
S11300B08FEF8AB91BB81092C1001BB8089590E065
S11300C080319105A0F5FC01EC5CFF4F0C94AC0170
S11300D08FE38BB9089586E08BB908958BE58BB9CE
S11300E008958FE48BB9089586E68BB908958DE65B
S11300F08BB908958DE78BB9089587E08BB908957E
S11301008FE78BB908958FE68BB9089587E78BB98C
S113011008958CE78BB9089589E38BB908958EE52A
S11301208BB9089589E78BB9089581E78BB9089550
S1130130E8E6F0E0808181608083EBE6F0E0808196
S1130140806180830895E8E6F0E0808182608083A6
S1130150ECE6F0E08081806380830895F8940E9447
S1130160580085B1806185B99FE094B988B18063F6
S113017088B997B90E9498000E94A300789480914E
S113018005018130E1F785E00E945F002FEF83EDE8
S113019090E3215080409040E1F700C0000084E0EB
S11301A00E945F002FEF83ED90E321508040904048
S11301B0E1F700C0000083E00E945F002FEF83EDB1
S11301C090E3215080409040E1F700C0000082E0BD
S11301D00E945F002FEF83ED90E321508040904018
S11301E0E1F700C0000081E00E945F002FEF83ED83
S11301F090E3215080409040E1F700C0000080E08F
S11302000E945F0082E080930501B9CF1F920F9294
S11302100FB60F9211242F933F934F935F936F93D5
S11302207F938F939F93AF93BF93EF93FF931C9907
S11302302AC080910001811126C08091050182307D
S113024011F588B1807F88B92091040181E0820F83
S1130250809304012093020138B181E090E002C050
S1130260880F991F2A95E2F7832B88B9439B0BC00B
S113027081E0809300010E945F0088B18F6088B99B
S113028085B1807F85B9FF91EF91BF91AF919F9127
S11302908F917F916F915F914F913F912F910F902B
S11302A00FBE0F901F9018951F920F920FB60F92CA
S11302B011242F933F934F935F936F937F938F9367
S11302C09F93AF93BF93EF93FF93349907C08091AB
S11302D00501811103C081E08093050135992BC08C
S11302E080910001811127C080910501823019F5A8
S11302F085B1807F85B92091030181E0820F8093CD
S113030003012093010135B181E090E002C0880F20
S1130310991F2A95E2F7832B85B92B9B0CC081E0AA
S11303208093000182E00E945F0085B18F6085B9EF
S113033088B1807F88B9FF91EF91BF91AF919F9170
S11303408F917F916F915F914F913F912F910F907A
S11303500FBE0F901F901895EE0FFF1F0590F4919C
S10B0360E02D0994F894FFCF8D
S9030105F6
